:100000000C9434000C9467000C9446000C94460049
:100010000C9446000C9446000C9446000C94460048
:100020000C9446000C9446000C9446000C94460038
:100030000C9446000C9446000C9402010C9446006B
:100040000C9446000C9446000C9446000C94460018
:100050000C9446000C9446000C9446000C94460008
:100060000C9446000C94460011241FBECFEFD8E03C
:10007000DEBFCDBF21E0A0E0B1E001C01D92A830FD
:10008000B207E1F70E942F010C9432010C9400009A
:1000900085B5856085BD8FEF87BD259A84B5826063
:1000A00084BD16BCEEE6F0E08081826080837894A7
:1000B00085B7806185BF529AE9E6F0E08081836070
:1000C0008083E89A089581E08093060108951F9245
:1000D0000F920FB60F9211242F933F934F935F937C
:1000E0006F937F938F939F93AF93BF93EF93FF9300
:1000F0000E946300FF91EF91BF91AF919F918F910B
:100100007F916F915F914F913F912F910F900FBE13
:100110000F901F90189580910701882351F010923D
:10012000070181E080930501109202018093030191
:10013000089580910301833009F450C0D8F48230CF
:1001400049F1882371F3809102018F5F809302014E
:10015000909105019111109205019091060199234A
:1001600061F010920601811181E0845F80930101AA
:1001700083E0DCCF8430E1F108958C30C1F585B1A6
:1001800090E2892785B981E08093040110920201F1
:1001900082E0CCCF809102018F5F80930201909129
:1001A000040191111092040190910601992389F0A4
:1001B00010920601282F811121E093E0921B909369
:1001C0000101891720F01092020181E0AFCF84E095
:1001D000ADCF833061F41092030108958091020144
:1001E0008F5F8093020190910101891761F2089558
:1001F000809102018F5F8093020190910101891328
:10020000F6CFE1CF1F920F920FB60F9211242F93CA
:100210003F934F935F936F937F938F939F93AF938E
:10022000BF93EF93FF93809100018F5F8093000154
:10023000803221F40E948B0010920001FF91EF9117
:10024000BF91AF919F918F917F916F915F914F91EE
:100250003F912F910F900FBE0F901F9018950E9405
:080260004800FFCFF894FFCF26
:00000001FF
